:020000040000FA
:1000000000040010E5000000E9000000EB00000023
:10001000ED000000EF000000F10000009EF3FFEF94
:10002000000000000000000000000000F3000000DD
:10003000F500000000000000F7000000F9000000DB
:10004000FB000000FB000000FB000000FB000000C4
:10005000FB000000FB000000FB000000FB000000B4
:10006000FB000000FB000000FB000000FB000000A4
:10007000FB00000000000000FB000000FB0000008F
:10008000FB000000FB000000FB000000FB00000084
:10009000FB000000FB000000FB000000FB00000074
:1000A000FB000000FB000000FB000000FB00000064
:1000B000FB000000FB000000FB000000FB00000054
:1000C000FB000000FB000000FB000000FB00000044
:1000D000FB000000FB000000FB000000FB00000034
:1000E000FB00000005480047FEE7FEE7FEE7FEE7ED
:1000F000FEE7FEE7FEE7FEE7FEE7FEE7010400009D
:1001000000000000000000000000000000000000EF
:1001100000000000000000000000000000000000DF
:1001200000000000000000000000000000000000CF
:1001300000000000000000000000000000000000BF
:100400004541881CE0425F5608001100002016BAE2
:04041000FEE7000003
:04000005000000E512
:00000001FF
